:020000040800F2
:10000000785000209D0100082D330008E5320008DB
:100010002933000869050008994000080000000025
:10002000000000000000000000000000093400088B
:100030002906000800000000693300080B3400089E
:10004000B7010008B7010008B7010008B7010008B0
:10005000B7010008B7010008B7010008B7010008A0
:10006000B7010008B7010008B7010008B701000890
:10007000B7010008B70100086D0500088D050008EC
:10008000B7010008B7010008B7010008B701000870
:10009000B7010008B7010008B7010008B701000860
:1000A000B7010008B7010008B7010008B701000850
:1000B000B7010008B7010008B7010008B701000840
:1000C000B7010008B7010008B7010008B701000830
:1000D000B701000889400008B7010008B70100080F
:1000E000B7010008B7010008B7010008B701000810
:1000F0008D350008B7010008B7010008B7010008F6
:10010000000000000000000000000000B70100082F
:10011000B7010008B7010008B7010008B7010008DF
:10012000AD050008B7010008B7010008B7010008D5
:10013000B7010008B701000800000000000000003F
:10014000B7010008B7010008B7010008000000006F
:10015000000000000000000000000000000000009F
:100160000000000000000000B7010008B70100080F
:10017000B7010008000000000000000000000000BF
:1001800000000000B7010008DFF80CD000F03CF8D8
:100190000048004731440008785000200648804756
:1001A00006480047FEE7FEE7FEE7FEE7FEE7FEE75C
:1001B000FEE7FEE7FEE7FEE71135000889010008CB
:1001C00010B54843044604F009FA002805D0002180
:1001D000002C02D0641E0155FAE710BD30B50B4665
:1001E000014600202022012409E021FA02F59D4267
:1001F00005D303FA02F5491B04FA02F52844151E3B
:10020000A2F10102F1DC30BD064C074D06E0E068CA
:1002100040F0010394E8070098471034AC42F6D34D
:10022000FFF7B6FF28490008484900082DE9F041CA
:1002300086B004460F4615461E46DDF830801D4840
:100240002060204600F038FD4FF480306060A560EB
:100250000021E1602161042161610021A161E1616E
:1002600001212162002161620121A162C4F82C8078
:1002700081112163012161630021A163204600F007
:100280003FFE0021204600F071FA0320009001207B
:100290000190029600200390049005906946204644
:1002A00000F0BAFAC8223946204601F001F806B03B
:1002B000BDE8F081000100502DE9F04104460D46F3
:1002C0000027B84600262068806800F00C0008B1BE
:1002D000012000E00020002870D02068C06800F0F5
:1002E0000070B0F1007F1FD1E06901281CD1A06926
:1002F000012819D10C250EE0314886420AD3606CE2
:1003000040F010006064A06C40F00100A064012087
:10031000BDE8F081761C20680068C0F380100028DA
:10032000EAD0402021680860602D10D020688068E5
:1003300000F0040004280AD12068806800F0020060
:1003400028B92068806840F01000216888600C2D72
:1003500010D02068806800F0080008280AD12068C2
:10036000806800F0020028B92068806840F0200012
:1003700021688860602D03D06C2D03D10C2703E029
:10038000082701E0042700BF00BF01F029FB8046D9
:100390000FE001F025FBA0EB08000B2809D9606CE9
:1003A00040F010006064A06C40F00100A0640120E7
:1003B000AEE72068806838400028EAD10020A7E72F
:1003C0000094090070B505466C6A606C00F050003E
:1003D000D0B9606C40F4007060642068C06800F4BC
:1003E000406068B9E06958B9606C20F4807060645E
:1003F000606C00F4805018B9606C40F001006064DB
:10040000204600F03DFC03E0E06B016B2846884786
:1004100070BD70B505466C6A606C40F04000606469
:10042000A06C40F00400A064204600F067FD70BDA1
:1004300070B50446656A284600F02EFC70BD70B5A4
:10044000044600252068806800F00300012806D1DA
:100450002068006800F0010008B1012000E00020E1
:1004600080B32068806800F00D00012800D100E012
:10047000002050B100BF2068806840F00200216871
:10048000886003202168086009E0606C40F010007B
:100490006064A06C40F00100A064012070BD01F018
:1004A0009FFA05460FE001F09BFA401B02280AD98B
:1004B000606C40F010006064A06C40F00100A0642B
:1004C0000120EBE705E02068806800F001000028CB
:1004D000E9D10020E2E7000070B50446002520685D
:1004E000806800F00300012806D12068006800F051
:1004F000010008B1012000E0002088BB206880686E
:100500001849084008B9012000E0002048B9606C93
:1005100040F010006064A06C40F00100A064012075
:1005200070BD2068806840F001002168886001F09B
:1005300057FA05460EE001F053FA401B022809D98C
:10054000606C40F010006064A06C40F00100A0649A
:100550000120E5E72068006800F001000028EAD0EB
:100560000020DDE73F00008000BFFEE710B5054832
:100570000078122804D104490968086E00F0C9FF08
:1005800010BD0000240000201800002010B5054810
:100590000078122804D104490968486E00F0B9FFB8
:1005A00010BD0000240000201800002010B50249F2
:1005B000C86B00F0AEFF10BDF40000200D4A0168CA
:1005C00091420BD20C4A0168891A1422B1FBF2F154
:1005D0008900016408490839C1630AE0054A0168D5
:1005E000891A1422B1FBF2F189000164014908392A
:1005F000C1637047080402400800024030B590F81B
:1006000040500124AC40C56B6C6004686360446872
:10061000102C04D10468A2600468E16003E004685F
:10062000A1600468E26030BD704710B502460B4619
:100630004FF6FF70002100BF07E032F811408442FE
:1006400001DA32F811004C1CA1B29942F5DB10BD61
:10065000F0B587B004460E4615461F46B4F1904FDC
:100660000DD100BF3B48406940F400303949486132
:100670000846406900F40030019000BF54E036485D
:1006800084420DD100BF3348406940F48020314995
:1006900048610846406900F48020019000BF43E0B3
:1006A0002E4884420DD100BF2A48406940F4002002
:1006B000284948610846406900F40020019000BFC5
:1006C00032E0274884420DD100BF2248406940F4FF
:1006D0008010204948610846406900F4801001906C
:1006E00000BF21E01F4884420DD100BF1948406976
:1006F00040F40010174948610846406900F40010B2
:10070000019000BF10E0184884420DD100BF11488D
:10071000406940F480000F4948610846406900F490
:100720008000019000BF00BF0296039515B1022022
:10073000049001E00020049003200590069702A990
:10074000204601F061F800223146204601F042F9CE
:1007500007B0F0BD00100240000400480008004847
:10076000000C004800100048001400482DE9F0413A
:1007700004460E46002700BF94F84000012802D12D
:100780000220BDE8F081012084F8400000BF20462F
:10079000FFF755FE0746C7BB0120606420688068EC
:1007A00020F0804021688860012E05D12068806893
:1007B00040F08040216888602068806840F00040F8
:1007C0002168886001F00CF9054611E001F008F994
:1007D000401B0A280CD9606C20F0020040F0100089
:1007E000606400BF002084F8400000BF0120C8E71B
:1007F0002068806800F00040B0F1004FE6D0606CE7
:1008000020F0020040F00100606400BF002084F886
:10081000400000BF3846B4E7F0B597B00246002567
:1008200000200090C868012800D000E000BF00BF91
:1008300092F84000012802D1022017B0F0BD01203B
:1008400082F8400000BF10688068C0F38000002874
:1008500079D14868052812D21068006B0E7906EB32
:10086000460677001F26BE40B0430F7907EB4707C7
:100870007F000E68BE4030431668306343E048682E
:100880000A2814D21068406B0E79761F06EB4606D4
:1008900077001F26BE40B0430F797F1F07EB470745
:1008A0007F000E68BE403043166870632BE04868D6
:1008B0000F2814D21068806B0E790A3E06EB4606AC
:1008C00077001F26BE40B0430F790A3F07EB47076A
:1008D0007F000E68BE4030431668B06313E01068B6
:1008E000C06B0E790F3E06EB460677001F26BE4012
:1008F000B0430F790F3F07EB47077F000E68BE40FC
:1009000030431668F0631068806800F00C0008B18E
:10091000012000E00020002870D108680A2813D3C5
:10092000106880690E780A3E06EB46070726BE402F
:10093000B0430F780A3F07EB47078E68BE4030434D
:100940001668B06110E07EE1106840690E7806EB31
:1009500046070726BE40B0430F7807EB47078E686F
:10096000BE4030431668706148691668F668C6F381
:10097000C106760000FA06F40869012806D00228AC
:1009800012D003281ED0042839D129E01068006E47
:10099000B34E30400E784FF0004747EA8666264354
:1009A00030431668306663E01068406EAC4E3040ED
:1009B0000E784FF0004747EA8666264330431668B4
:1009C000706655E01068806EA54E30400E784FF08E
:1009D000004747EA8666264330431668B06647E01C
:1009E0001068C06E9E4E30400E784FF0004747EAC8
:1009F0008666264330431668F06639E039E01068B1
:100A0000006E00F0F8400E78B0EB866F05D11068EC
:100A1000006E20F00040166830661068406E00F0EE
:100A2000F8400E78B0EB866F05D11068406E20F06C
:100A30000040166870661068806E00F0F8400E780E
:100A4000B0EB866F05D11068806E20F0004016680C
:100A5000B0661068C06E00F0F8400E78B0EB866F9C
:100A600005D11068C06E20F000401668F06600BF27
:100A700000BF1068806800F00300012806D11068EC
:100A8000006800F0010008B1012000E0002000280B
:100A900071D1C86801280AD01068D0F8B0000F786A
:100AA0000126BE40B0431668C6F8B00032E01068B8
:100AB000D0F8B0000F780126BE4030431668C6F863
:100AC000B00008680A2813D31068866908780938C6
:100AD00000EB40070720B84026EA00000E78093EE8
:100AE00006EB46068F68B74038431668B06111E0E0
:100AF000106840690E78761C06EB46070726BE4054
:100B0000B0430F787F1C07EB47078E68BE40304329
:100B1000166870611068B0F1A04F03D0514E106894
:100B2000B04201D1504800E0504803460868102800
:100B300003D1986800F4000070B10868112803D14F
:100B4000986800F0807038B10868122813D198684E
:100B500000F4800000287BD11068B0F1A04F02D1D2
:100B60004048019018E03F4E1068B04204D14FF069
:100B7000A040019010E05FE03D4E1068B04202D10D
:100B80003C48019008E03B4E1068B04202D1384822
:100B9000019001E0002001901068806800F00300DF
:100BA000012806D11068006800F0010008B101209A
:100BB00000E00020C0BB019870B10198806800F08F
:100BC0000300012806D10198006800F0010008B177
:100BD000012000E0002038BB0868102818D11068F8
:100BE000B0F1A04F14D1986840F4000098602248FA
:100BF0000068224EB0FBF6F000EB80004000009051
:100C000002E00098401E009000980028F9D11FE0F3
:100C10000868112809D11068B0F1A04F05D1986873
:100C200040F08070986013E007E0086812280FD148
:100C3000986840F4800098600AE0506C40F0200012
:100C40005064012504E0506C40F020005064012500
:100C500000BF002082F8400000BF2846EDE50000FC
:100C600000F0FF8300010050000300500007005017
:100C700000040050000500501400002040420F0006
:100C8000034A0168914202D10121024A1170704762
:100C90000001005010000020054A0168914206D171
:100CA0004901044A116049114FF090429162704726
:100CB000000100502808004870B596B00446002591
:100CC00014B9012016B070BD606C40F00200606481
:100CD0006C212046FFF7F0FA054675B92068C06818
:100CE00040F400102168C8602046FFF7A8FB0546C5
:100CF00015B90120606400E00125002D7ED1206837
:100D000040686FF30A002168486040F2FF70216874
:100D100008602068806820F0E040216888602068D2
:100D2000806840F00050216888602068C068694988
:100D300008402168C8602068406967490840216808
:100D400048612068806900F07840216888612068E7
:100D5000006A00F0F020216808622068406A00F014
:100D6000FF20216848622068806A00F0FF20216827
:100D700088622068006B5949084021680863206830
:100D8000406B564910390840216848632068806BE1
:100D9000524910390840216888632068C06B40F2CE
:100DA000DF7188432168C8632068006E4C490840A1
:100DB000216808662068406E4949084021684866F5
:100DC0002068806E46490840216888662068C06EA9
:100DD000434908402168C8662068D0F8A0006FF336
:100DE00012002168C1F8A0002068D0F8A4006FF3B9
:100DF00012002168C1F8A400206800E063E0D0F888
:100E0000B0006FF312002168C1F8B0002068D0F87C
:100E1000B40020F07F102168C1F8B4002068B0F160
:100E2000A04F03D02F492068884201D12E4800E00E
:100E30002E4806462068B0F1A04F02D12948009004
:100E400017E028492068884203D14FF0A040009065
:100E50000FE027492068884202D12648009008E028
:100E600024492068884202D12148009001E00020F6
:100E700000902068806800F00300012806D12068F7
:100E8000006800F0010008B1012000E00020A0B9D6
:100E9000009870B10098806800F00300012806D126
:100EA0000098006800F0010008B1012000E0002077
:100EB00018B9B06810490840B060204600F08CF9BD
:100EC0000020A064606400BF002084F8400000BFE0
:100ED0002846F7E604800080070000C0300882E062
:100EE00000F0FF0300010050000300500007005015
:100EF0000004005000050050E0103CFE7047000068
:100F0000F0B597B00446002600250020009014B9E3
:100F1000012017B0F0BD206910B1606A00B100BFB8
:100F2000606C00F01000002853D1606C98BB00206A
:100F3000A06400216165206584F84000204600F02F
:100F40004DF92068806800F0805020BB2046FFF7F4
:100F500076FA0646606C00F01000E0B9DEB9606C0D
:100F600020F4885040F0020060642068806820F01F
:100F70004050216888602068806840F08050216877
:100F800088608D4800688D49B0FBF1F000EB80006F
:100F90004000009003E005E00098401E009000989B
:100FA0000028F9D12068806800F0805030B12068B6
:100FB000806800F00050B0F1005F0AD1606C20F052
:100FC000020040F010006064A06C40F00100A064DA
:100FD0000126606C00F0100000287AD1002EFCD1B0
:100FE00020688068C0F380000028F6D1606C20F48F
:100FF000807040F0020060642068B0F1A04F03D020
:101000006F492068884201D16E4800E06E4807466B
:101010002068B0F1A04F02D16948019017E06849FB
:101020002068884203D14FF0A04001900FE067494B
:101030002068884202D16648019008E0644920682F
:10104000884202D16148019001E0002001902068AF
:10105000806800F00300012806D12068006800F0D5
:10106000010008B1012000E00020B0B9019870B182
:101070000198806800F00300012806D101980068FB
:1010800000F0010008B1012000E0002028B9B86894
:1010900020F4403061680843B860A06B012802D09A
:1010A0004FF4805100E00021E06941EA4030E168FE
:1010B0000843A16808430543606A012814D1E06928
:1010C00040B9208D401E4FF4803141EA4040054335
:1010D0000AE068E0606C20F0020040F020006064EC
:1010E000A06C40F00100A064E06A012822D03749DA
:1010F0002068884203D036492068884216D1E06AC9
:10110000B0F5307F02D14FF4E07010E0E06AB0F546
:10111000807F02D14FF4307009E0E06AB0F5E07FE3
:1011200002D14FF4807002E0E06A00E0E06A216BD7
:10113000084305432068806800F00C0008B10120D6
:1011400000E0002060B92068C06844F202018843D2
:101150002168C860A0698103606B41EA40000543D3
:101160002068C0681B49084028432168C86020697E
:10117000012809D12068006B20F00F00216A491E68
:1011800008432168086305E02068006B20F00F0029
:10119000216808630020A064606C20F0020040F029
:1011A0000100606406E0606C20F0020040F0100076
:1011B000606401263046ACE61400002040420F0077
:1011C00000010050000300500007005000040050D0
:1011D0000005005007C0F0FF7047000010B586B052
:1011E00004462F492068884257D100BF2D484069E6
:1011F00040F400302B4948610846406900F4003053
:10120000009000BF00BF00BF0846406940F080501A
:1012100048610846406900F08050009000BF00BF60
:1012200000BF0846406940F0020048610846406936
:1012300000F00200009000BF00BF4020019003209A
:1012400002900020039001A94FF0904000F0DCFADA
:101250001548164908600020486000211348816045
:101260008021C160490001618900416100218161E3
:101270004FF48051C16100F021F90C4800F0BCF935
:1012800000BF0A48E063446200BF002211463820D4
:1012900000F051FC382000F041FC06B010BD000009
:1012A0000001005000100240080402404C010020E0
:1012B0002DE9F04104460D46164600272068806857
:1012C000C0F3800000287DD100BF94F840000128C1
:1012D00002D10220BDE8F081012084F8400000BF67
:1012E0002068B0F1A04F03D057492068884204D14C
:1012F0005648006800F01F0003E05548006800F001
:101300001F0000287DD12046FFF7E6F80746002F92
:1013100078D1606C40F60161884340F4807060646D
:101320002068B0F1A04F03D047492068884204D11B
:101330004648006800F01F0003E04548006800F0E0
:101340001F0040B12068B0F1A04F04D03F49F831F0
:10135000206888420FD1606C20F48010606420689F
:10136000C06800F0007018B3606C20F4005040F4C6
:10137000805060641CE0606C40F480106064206801
:10138000B0F1A04F03D030492068884205D14FF01A
:10139000A040C06800F0007003E02E48006800F034
:1013A000007028B1606C20F4005040F480506064FC
:1013B000606C00F48050B0F5805F06D1A06C20F026
:1013C000060000E03DE0A06401E00020A06400BF52
:1013D000002084F8400000BF1F48E16B88621F486E
:1013E000E16BC8621E48E16B08631C20216808603D
:1013F0002068406840F01000216848602068C0689C
:1014000001E018E012E040F001002168C8602268A5
:1014100002F1400133462A46E06B00F018F92068DB
:10142000806840F00400216888600BE000BF002065
:1014300084F8400006E0012700BF002084F8400047
:1014400000E00227384645E700010050080300503D
:10145000080700500C040050C503000831040008C0
:101460001304000870B50446002594F821000228F2
:1014700003D00420A06301251EE02068006820F04E
:101480000E00216808602068006820F001002168D3
:10149000086094F8401001208840E16B486001200A
:1014A00084F8210000BF002084F8200000BF606B9A
:1014B00010B12046616B8847284670BD10B50446C0
:1014C0000CB9012010BD2068006820F001002168DF
:1014D00008600020216808602168486021688860F1
:1014E0002168C8602046FFF769F894F84010012091
:1014F0008840E16B48600020A062E0622063606386
:10150000A06384F8210000BF84F8200000BF00BF62
:10151000D8E770B50446E06B05682068066894F863
:101520004010042088402840D0B106F00400B8B133
:101530002068006800F0200028B92068006820F0CA
:1015400004002168086094F8401004208840E16B92
:101550004860E06A00284ED02046E16A88474AE0A9
:1015600094F8401002208840284008B306F002009A
:10157000F0B12068006800F0200040B920680068E1
:1015800020F00A0021680860012084F8210094F806
:10159000401002208840E16B486000BF002084F8C2
:1015A000200000BFA06A30B32046A16A884722E02D
:1015B00094F84010082088402840E0B106F0080068
:1015C000C8B12068006820F00E002168086094F817
:1015D000401001208840E16B48600120A06384F83E
:1015E000210000BF002084F8200000BF206B10B154
:1015F0002046216B884770BD70B5044600250CB9A4
:10160000012070BD022084F821002068056843F69F
:10161000F0708543D4E901010843E168084321697A
:10162000084361690843A1690843E1690843054328
:10163000206805602046FEF7C1FF0020A06301205E
:1016400084F82100002084F8200000BFD9E72DE9AC
:10165000F04104460D4616461F464FF0000800BFF5
:1016600094F82000012802D10220BDE8F081012079
:1016700084F8200000BF94F8210001282CD102201A
:1016800084F821000020A0632068006820F0010099
:10169000216808603B46324629462046FEF7AEFFE9
:1016A000E06A30B12068006840F00E0021680860F0
:1016B0000BE02068006840F00A002168086020689C
:1016C000006820F00400216808602068006840F08D
:1016D00001002168086006E000BF002084F82000B7
:1016E00000BF4FF002084046BFE70000F0B50B46D0
:1016F00000210022002475E001258D4005EA030247
:10170000002A6ED005684F000326BE40B543056031
:10171000CE0800F1200555F826504E07F70E0F268B
:10172000BE40B543CF0800F1200646F82750856833
:101730004F000326BE40B5438560466801258D40B5
:10174000AE434660C5684F000326BE40B543C56042
:10175000274D8E0855F826408D072E0F0F25B540D2
:101760002C40B0F1904F01D1002514E0214DA8424A
:1017700001D101250FE0204DA84201D102250AE048
:101780001E4DA84201D1032505E01D4DA84201D1FF
:10179000042500E005258E07360FB540A54220D16F
:1017A0008D072E0F0F2505FA06F4114D8E0855F8FA
:1017B0002660A6438F0845F82760124D2D68954393
:1017C000104E3560351D2D689543361D3560351D2D
:1017D0002D689543361D3560351D2D689543361DA2
:1017E0003560491C23FA01F5002D85D1F0BD0000BC
:1017F000080001400004004800080048000C0048B0
:10180000001000480004014078B50346002200247F
:101810000020CBE0012696400D6805EA0604002C66
:1018200072D04D68022D02D04D68122D13D1D6080A
:1018300003F1200555F826005507EE0E0F25B5409B
:10184000A8435607F60E0D69B5402843D60803F1A4
:10185000200545F82600186856000325B540A84322
:101860000D7905F003055600B540284318604D6812
:10187000012D08D04D68022D05D04D68112D02D0E4
:101880004D68122D13D1986856000325B540A84322
:101890005600CD68B54028439860586801259540AA
:1018A000A8430D79C5F30015954028435860D868C2
:1018B00056000325B540A84356008D68B54028431F
:1018C000D8604D6805F08055B5F1805F6DD100BFDF
:1018D000394DAD6945F00105374EB5613546AD6905
:1018E00005F00105009500BF00BF4FEAB635960828
:1018F00055F8260095072E0F0F25B540A843B3F1E4
:10190000904F02D1002515E04FE02C4DAB4201D1A4
:1019100001250FE02A4DAB4201D102250AE0294DF5
:10192000AB4201D1032505E0274DAB4201D104258F
:1019300000E005259607360FB5402843234D96084D
:1019400045F82600224D2868A0434D6805F48035EF
:10195000B5F5803F00D120431D4D28602D1D28681E
:10196000A0434D6805F40035B5F5003F00D1204394
:10197000174D2D1D28602D1D2868A0434D6805F4C6
:101980008015B5F5801F00D12043114D0835286022
:101990002D1D2868A0434D6805F40015B5F5001FFE
:1019A00000D120430A4D0C352860521C0D68D540EB
:1019B000002D7FF42FAF78BD0010024000040048D6
:1019C00000080048000C00480010004808000140D2
:1019D000000401400AB1816100E0816270470000AB
:1019E000014800687047000030000020034800688C
:1019F0000349097808440149086070473000002015
:101A00003800002010B50848006840F01000064972
:101A10000860032000F0CEF80F2000F007F800F077
:101A20002BF8002010BD00000020024070B50446D5
:101A30000E4800784FF47A71B1FBF0F00C49096858
:101A4000B1FBF0F5284600F0ABFF08B1012070BDF6
:101A5000102C07D200222146501E00F06CF80548D9
:101A6000046001E00120F2E70020F0E738000020E8
:101A7000140000203400002008B500BF1F48806912
:101A800040F001001D4988610846806900F00100AE
:101A9000009000BF00BF00BF0846C06940F0805002
:101AA000C8610846C06900F08050009000BF00BFC8
:101AB000072000F07FF8002211466FF00B0000F0C5
:101AC0003AF8002211466FF00A0000F034F80022C4
:101AD00011466FF0090000F02EF800221146501F49
:101AE00000F029F800221146101F00F024F800220F
:101AF0001146901E00F01FF808BD000000100240C3
:101B000000BF00F01F0201219140034A430942F83F
:101B1000231000BF7047000080E100E000BF00F02C
:101B20001F02012191404209920002F1E022C2F815
:101B3000001100BF70472DE9F05F80460D46164644
:101B4000002701F0F5FB074639462A46334601F0E7
:101B50000700C0F1070ABAF1040F02D94FF0040AD6
:101B600001E0C0F1070AD14600F1040ABAF1070FFB
:101B700002D24FF0000A01E0A0F1030AD4464FF070
:101B8000010A0AFA09FAAAF1010A0AEA020A0AFA99
:101B90000CFA4FF0010B0BFA0CFBABF1010B0BEA4B
:101BA000030B4AEA0B042146404601F0C9FBBDE89D
:101BB000F09F000000BF00F00702064B19684FF6C7
:101BC000FF031940044B0B4343EA0221014B196008
:101BD00000BF70470CED00E00000FA0570B5044648
:101BE0000D4600260CB9012070BDA248006800F027
:101BF0000700A8420ED29F48006820F00700284343
:101C00009C4908600846006800F00700A84201D01F
:101C10000120E9E7207800F00200022807D1964869
:101C2000406820F0F000A16808439349486020789C
:101C300000F0010000287CD0606801283BD1202002
:101C4000010391FAA1F1B1FA81F108430121B1EB4D
:101C5000601F02D1884800681DE02020010391FA2E
:101C6000A1F1B1FA81F108430221B1EB601F02D169
:101C70008148006A0FE02020010391FAA1F1B1FA36
:101C800081F108430421B1EB601F02D17A4840681A
:101C900001E07948406A20210A0392FAA2F2B2FADE
:101CA00082F2114301F01F020121914008400028F7
:101CB0007CD1012098E7606802283BD120200105F3
:101CC00091FAA1F1B1FA81F108430121B1EB601F52
:101CD00002D1694800681DE02020010591FAA1F1B8
:101CE000B1FA81F108430221B1EB601F02D16248D1
:101CF000006A0FE02020010591FAA1F1B1FA81F10B
:101D000008430421B1EB601F02D15B48406801E049
:101D10005948406A20210A0592FAA2F2B2FA82F2E8
:101D2000114301F01F02012191400840E8BB01204E
:101D30005AE758E02020022191FAA1F1B1FA81F18D
:101D400008430121B1EB601F02D14B4800681DE040
:101D50002020022191FAA1F1B1FA81F10843022178
:101D6000B1EB601F02D14448006A0FE0202002213D
:101D700091FAA1F1B1FA81F108430421B1EB601F9E
:101D800002D13D48406801E03B48406A20210222E0
:101D900092FAA2F2B2FA82F2114301F01F0201217B
:101DA0009140084008B901201EE7FFE7324840682B
:101DB00020F00300616808432F494860FFF710FED8
:101DC000064608E0FFF70CFE801B41F2883188428E
:101DD00001D9032008E72848406800F00C0061683A
:101DE000B0EB810FEED12348006800F00700A84255
:101DF0000ED92048006820F0070028431D490860DC
:101E00000846006800F00700A84201D00120EBE678
:101E1000207800F00400042807D11748406820F417
:101E2000E060E168084314494860207800F0080049
:101E3000082808D11048406820F46050216940EA21
:101E4000C1000D49486000F04FF80B49496801F0A6
:101E5000F001F02292FAA2F2B2FA82F2D140074ADD
:101E6000515CC840064908600F20FFF7DFFD0020E5
:101E7000BAE600000020024000100240F0480008CE
:101E80001400002001480068704700001400002082
:101E900000B5FFF7F7FF0749496801F4E0614FF427
:101EA000E06292FAA2F2B2FA82F2D140024A515CA6
:101EB000C84000BD001002400049000800B5FFF70F
:101EC000E1FF0749496801F460514FF4605292FA0A
:101ED000A2F2B2FA82F2D140024A515CC84000BD7F
:101EE000001002400049000870B5002100240022C3
:101EF000002300201A4D696801F00C0565B3042D1C
:101F000002D0082D27D101E0164827E001F4701512
:101F10004FF4701696FAA6F6B6FA86F6F540124E0B
:101F2000735D0F4DED6A05F00F050F2696FAA6F6C4
:101F3000B6FA86F6F5400D4E745D01F480352DB18C
:101F4000084DB5FBF4F505FB03F202E0084D03FB79
:101F500005F2104602E000BF024800BF00BF70BD9E
:101F60000010024000127A000849000818490008D1
:101F700000093D00F8B504460CB90120F8BD2078F1
:101F800000F0010000287BD0FA48406800F00C0007
:101F900004280CD0F748406800F00C00082845D110
:101FA000F448406800F48030B0F5803F3ED12020F6
:101FB000010391FAA1F1B1FA81F108430121B1EBDA
:101FC000601F02D1EB4800681DE02020010391FA58
:101FD000A1F1B1FA81F108430221B1EB601F02D1F6
:101FE000E448006A0FE02020010391FAA1F1B1FA60
:101FF00081F108430421B1EB601F02D1DD48406844
:1020000001E0DC48406A20210A0392FAA2F2B2FA07
:1020100082F2114301F01F02012191400840002883
:10202000B1D0606800282BD10120A7E700BF60680D
:10203000B0F5803F06D1CF48006840F48030CD49EC
:10204000086029E0606858B9CA48006820F4803008
:10205000C84908600846006820F4802008601BE03A
:102060006068B0F5A02F0CD1C248006840F4802011
:10207000C04908600846006840F4803008600BE002
:10208000A1E0BC48006820F48030BA4908600846E6
:10209000006820F48020086000BFB648C06A20F0C5
:1020A0000F00A1680843B349C8626068A0B3FFF796
:1020B00097FC054606E0FFF793FC401B642801D916
:1020C00003205BE72020010391FAA1F1B1FA81F12D
:1020D00008430121B1EB601F02D1A64800681EE051
:1020E0002020010391FAA1F1B1FA81F10843022104
:1020F000B1EB601F02D19F48006A10E0202001036D
:1021000091FAA1F1B1FA81F108430421B1EB601F0A
:1021100003D19848406802E010E09648406A2021C8
:102120000A0392FAA2F2B2FA82F2114301F01F02FC
:102130000121914008400028BDD044E0FFF750FC49
:10214000054606E0FFF74CFC401B642801D903203C
:1021500014E72020010391FAA1F1B1FA81F10843BB
:102160000121B1EB601F02D1824800681DE02020F0
:10217000010391FAA1F1B1FA81F108430221B1EB17
:10218000601F02D17B48006A0FE02020010391FA12
:10219000A1F1B1FA81F108430421B1EB601F02D132
:1021A0007448406801E07348406A20210A0392FAAB
:1021B000A2F2B2FA82F2114301F01F020121914012
:1021C00008400028BED1207800F0020002285CD12F
:1021D0006848406800F00C0050B16648406800F064
:1021E0000C00082852D16348406800F48030E8BBF6
:1021F0002020022191FAA1F1B1FA81F108430121D5
:10220000B1EB601F02D15B4800681DE02020022175
:1022100091FAA1F1B1FA81F108430221B1EB601FFB
:1022200002D15448006A0FE02020022191FAA1F166
:10223000B1FA81F108430421B1EB601F02D14D488E
:10224000406801E04B48406A2021022292FAA2F243
:10225000B2FA82F2114301F01F02012191400840BD
:1022600028B12069012802D0012087E60EE041480C
:10227000006820F0F800F82292FAA2F2B2FA82F294
:102280006169914008433B490860B1E0206970B33F
:10229000012191FAA1F0B0FA80F0374A42F82010FB
:1022A000FFF79EFB054606E0FFF79AFB401B02285E
:1022B00001D9032062E62020022191FAA1F1B1FAAE
:1022C00081F108430121B1EB601F02D12948006868
:1022D0001EE02020022191FAA1F1B1FA81F1084318
:1022E0000221B1EB601F03D12248006A10E02CE00C
:1022F0002020022191FAA1F1B1FA81F108430421D1
:10230000B1EB601F02D11B48406801E01948406AE8
:102310002021022292FAA2F2B2FA82F2114301F0D3
:102320001F020121914008400028BDD011480068DB
:1023300020F0F800F82292FAA2F2B2FA82F2616971
:10234000914008430B49086052E00020012191FAB6
:10235000A1F1B1FA81F1084A42F82100FFF740FBF0
:1023600005460BE0FFF73CFB401B022806D9032083
:1023700004E600000010024000004242202002213A
:1023800091FAA1F1B1FA81F108430121B1EB601F8B
:1023900002D1FB4800681DE02020022191FAA1F142
:1023A000B1FA81F108430221B1EB601F02D1F44878
:1023B000006A0FE02020022191FAA1F1B1FA81F127
:1023C00008430421B1EB601F02D1ED48406801E0F1
:1023D000EB48406A2021022292FAA2F2B2FA82F27B
:1023E000114301F01F020121914008400028B9D19A
:1023F000207800F00800082851D1A06980B301209E
:1024000090FAA0F1B1FA81F1DE4A02EB8101C1F844
:102410008004FFF7E5FA054606E0FFF7E1FA401B06
:10242000022801D90320A9E56020022191FAA1F137
:10243000B1FA81F108430121B1EB601F02D1D0480C
:1024400000681EE06020022191FAA1F1B1FA81F149
:1024500008430221B1EB601F03D1C948006A10E0B4
:102460001EE06020022191FAA1F1B1FA81F1084346
:102470000421B1EB601F02D1C148406801E0C048AF
:10248000406A6021022292FAA2F2B2FA82F2114369
:1024900001F01F020121914008400028BDD04FE00B
:1024A0000020012191FAA1F1B1FA81F1B54A02EBC4
:1024B0008101C1F88004FFF793FA054606E0FFF7B3
:1024C0008FFA401B022801D9032057E56020022122
:1024D00091FAA1F1B1FA81F108430121B1EB601F3A
:1024E00002D1A74800681DE06020022191FAA1F105
:1024F000B1FA81F108430221B1EB601F02D1A0487B
:10250000006A0FE06020022191FAA1F1B1FA81F195
:1025100008430421B1EB601F02D19948406801E0F3
:102520009748406A6021022292FAA2F2B2FA82F23D
:10253000114301F01F020121914008400028BED143
:10254000207800F00400042873D100268C48C0696C
:1025500000F0805070B900BF8948C06940F08050D9
:102560008749C8610846C06900F08050009000BFEC
:1025700000BF01268448006800F48070B0B982482A
:10258000006840F4807080490860FFF729FA05462A
:1025900006E0FFF725FA401B642801D90320EDE48B
:1025A0007948006800F480700028F2D000BFE0682D
:1025B000012806D17248006A40F0010070490862A3
:1025C00027E0E06858B96E48006A20F001006C49C5
:1025D00008620846006A20F00400086219E0E0681A
:1025E00005280BD16648006A40F00400644908627F
:1025F0000846006A40F0010008620AE06048006A8C
:1026000020F001005E4908620846006A20F00400DC
:10261000086200BFE068B8B3FFF7E2F9054609E0D9
:10262000FFF7DEF9401B41F28831884202D90320CE
:10263000A4E48BE04020022191FAA1F1B1FA81F1EA
:1026400008430121B1EB601F02D14D4800681EE034
:102650004020022191FAA1F1B1FA81F1084302214F
:10266000B1EB601F02D14648006A10E04020022111
:1026700091FAA1F1B1FA81F108430421B1EB601F95
:1026800003D13F48406802E010E03D48406A4021E5
:10269000022292FAA2F2B2FA82F2114301F01F0270
:1026A0000121914008400028BAD046E0FFF798F990
:1026B000054608E0FFF794F9401B41F28831884253
:1026C00001D903205AE44020022191FAA1F1B1FA84
:1026D00081F108430121B1EB601F02D12848006855
:1026E0001DE04020022191FAA1F1B1FA81F10843E5
:1026F0000221B1EB601F02D12148006A0FE04020A7
:10270000022191FAA1F1B1FA81F108430421B1EB60
:10271000601F02D11A48406801E01948406A402110
:10272000022292FAA2F2B2FA82F2114301F01F02DF
:102730000121914008400028BCD1012E05D110484C
:10274000C06920F080500E49C86100BFE0690028D0
:1027500074D00B48406800F00C0008286FD0E06986
:1027600002286DD100204FF0807191FAA1F1B1FAE9
:1027700081F1044A42F82100FFF732F905460CE0E6
:10278000001002400000424200700040FFF728F9AC
:10279000401B022801D9032047E42020010591FABB
:1027A000A1F1B1FA81F108430121B1EB601F02D11F
:1027B0006F4800681DE02020010591FAA1F1B1FAEF
:1027C00081F108430221B1EB601F02D16848006A21
:1027D0000FE02020010591FAA1F1B1FA81F108433F
:1027E0000421B1EB601F02D16148406801E06048FC
:1027F000406A20210A0592FAA2F2B2FA82F211434B
:1028000001F01F020121914008400028BED1D4E907
:10281000081008435649496821F474110843544983
:1028200048600121080690FAA0F0B0FA80F0514A01
:1028300042F82010FFF7D4F8054609E095E092E051
:1028400041E0FFF7CDF8401B022801D9032038E40E
:102850002020010591FAA1F1B1FA81F1084301218B
:10286000B1EB601F02D1424800681DE02020010545
:1028700091FAA1F1B1FA81F108430221B1EB601F95
:1028800002D13B48006A0FE02020010591FAA1F136
:10289000B1FA81F108430421B1EB601F02D1344841
:1028A000406801E03248406A20210A0592FAA2F20B
:1028B000B2FA82F2114301F01F0201219140084057
:1028C0000028BED051E000214FF0807090FAA0F0B7
:1028D000B0FA80F0274A42F82010FFF781F8054649
:1028E00006E0FFF77DF8401B022801D903202FE402
:1028F0002020010591FAA1F1B1FA81F108430121EB
:10290000B1EB601F02D11A4800681DE020200105CC
:1029100091FAA1F1B1FA81F108430221B1EB601FF4
:1029200002D11348006A0FE02020010591FAA1F1BD
:10293000B1FA81F108430421B1EB601F02D10C48C8
:10294000406801E00A48406A20210A0592FAA2F292
:10295000B2FA82F2114301F01F02012191400840B6
:102960000028BED101E001207FE400207DE40000CA
:102970000010024000004242042808D14FF0E0213C
:10298000096941F004014FF0E022116107E04FF0C6
:10299000E021096921F004014FF0E0221161704744
:1029A00070B504462546681EB0F1807F01D3012032
:1029B0000FE0681E4FF0E02148610F214FF0FF301B
:1029C00000F0BEFC00204FF0E02188610720086184
:1029D000002070BD704770477047000030B5024658
:1029E0000B4600BF92F83C00012801D1022030BD07
:1029F000012082F83C0000BF1068416810688468BC
:102A00000F4D1068A84203D00E4D1068A84203D1A4
:102A100021F470015868014321F0700118680143E6
:102A200024F0800498680443106841601068846052
:102A300000BF002082F83C0000BF00BFD7E70000C5
:102A4000002C01400034014010B504460CB90120AF
:102A500010BD94F83D0028B9002084F83C002046C1
:102A600000F00CF8022084F83D00211D206800F0E1
:102A70005FFE012084F83D000020E9E710B5044620
:102A8000204600F08BFD10BD0146022081F83D007C
:102A90000868006840F001000A681060012081F8B1
:102AA0003D000020704700002DE9F04104460D462E
:102AB000002600BF94F83C00012802D10220BDE8A6
:102AC000F081012084F83C0000BF022084F83D0022
:102AD000206886684148064026F47F462068866064
:102AE000286850283CD00CDC202861D004DC002869
:102AF00054D0102866D156E030285ED0402861D1ED
:102B000042E0602836D070280ED0B0F5805F03D048
:102B1000B0F5005F56D116E0206880682F4970310B
:102B20000840216888604EE0D5E902136A68206891
:102B300000F05CFE206886682848064046F077066C
:102B4000206886603FE0D5E902136A68206800F0DB
:102B50004DFE2068806840F480402168886032E043
:102B6000EA686968206800F057FE5021206800F08C
:102B700049FE28E0EA686968206800F062FE60218A
:102B8000206800F03FFE1EE0EA686968206800F0F7
:102B900043FE4021206800F035FE14E0002120684B
:102BA00000F030FE0FE01021206800F02BFE0AE05C
:102BB0002021206800F026FE05E03021206800F08A
:102BC00021FE00E000BF00BF012084F83D0000BFEF
:102BD000002084F83C0000BF00BF70E788FFFEFFC4
:102BE000704710B5044620680069C0F34000D8B1B2
:102BF0002068C068C0F34000B0B16FF002002168E7
:102C00000861012020772068806900F0030018B176
:102C10002046FFF7E5FF05E0204600F0BEF820461D
:102C200000F0BCF80020207720680069C0F3800025
:102C3000D8B12068C068C0F38000B0B16FF0040064
:102C400021680861022020772068806900F44070C4
:102C500018B12046FFF7C4FF05E0204600F09DF8BC
:102C6000204600F09BF80020207720680069C0F320
:102C7000C000D8B12068C068C0F3C000B0B16FF028
:102C8000080021680861042020772068C06900F0EE
:102C9000030018B12046FFF7A3FF05E0204600F02F
:102CA0007CF8204600F07AF8002020772068006940
:102CB000C0F30010D8B12068C068C0F30010B0B1F4
:102CC0006FF0100021680861082020772068C06933
:102CD00000F4407018B12046FFF782FF05E020465F
:102CE00000F05BF8204600F059F8002020772068BB
:102CF000006900F0010058B12068C06800F00100D0
:102D000030B16FF0010021680861204600F048F8FA
:102D100020680069C0F3C01058B12068C068C0F3D3
:102D2000C01030B16FF08000216808612046FFF7C5
:102D300052FE20680069C0F3002058B12068C068C6
:102D4000C0F3C01030B16FF4807021680861204674
:102D5000FFF740FE20680069C0F3801058B120687A
:102D6000C068C0F3801030B16FF040002168086186
:102D7000204600F021F820680069C0F3401058B1E7
:102D80002068C068C0F3401030B16FF020002168A7
:102D900008612046FFF720FE10BD70477047000015
:102DA000034A0168914202D14914024A11607047F6
:102DB00000340140180800487047704710B50446B9
:102DC0000CB9012010BD242084F869002068006837
:102DD00020F0010021680860002021680860216857
:102DE000486021688860204600F010F90020E06605
:102DF00084F8690084F86A0000BF84F8680000BFA6
:102E000000BFDFE7704700002DE9F041044620686D
:102E1000C5692068066805F00F08B8F1000F0AD1EF
:102E200005F0200038B106F0200020B1204600F067
:102E300003FFBDE8F08120688768B8F1000F7DD0FE
:102E400007F0010018B906F49070002876D005F05C
:102E5000010048B106F4807030B101202168086299
:102E6000E06E40F00100E06605F0020048B107F0B6
:102E7000010030B1022021680862E06E40F00400D9
:102E8000E06605F0040048B107F0010030B104200D
:102E900021680862E06E40F00200E06605F008007C
:102EA00060B106F0200010B907F0010030B1082031
:102EB00021680862E06E40F00800E066E06E68B3EA
:102EC00005F0200028B106F0200010B1204600F0E7
:102ED000B3FEE06E00F0080028B92068806800F0BA
:102EE0004000402824D1204600F02EFE2068806853
:102EF00000F04000402817D12068806820F0400092
:102F000021688860606E58B12148616E4863606EC8
:102F1000FEF7A8FA10B1606E416B88470DE00DE036
:102F20002046FFF76FFF08E02046FFF76BFF04E045
:102F30002046FFF767FF0020E0667AE705F480107F
:102F400078B107F4800060B14FF480102168086206
:102F5000202084F8690084F86A002046FFF72DFFDE
:102F600067E705F0800030B106F0800018B1204618
:102F700001F01EF85DE705F0400030B106F04000BA
:102F800018B1204600F0F0FD53E700BF51E7000004
:102F90003F3A000810B504460CB9012010BDA069E5
:102FA00000B100E000BF94F8690028B9002084F85F
:102FB0006800204600F048F8242084F86900206862
:102FC000006820F0010021680860204600F07AFEC9
:102FD000012800D1E2E7606A10B1204600F079FCD8
:102FE0002068406820F4904021684860206880682C
:102FF00020F02A00216888602068006840F0010005
:1030000021680860204600F0E0FCC7E710B50446E0
:103010000C48C06840F480400A49C8600846C0684F
:1030200020F48040C86049154FF09040FEF75EFBE9
:103030004FF480614FF09040FEF758FB2520FEF7DB
:103040005FFD10BD0010024010B50446094800782D
:10305000122802D1204601F059FB064800782328A7
:1030600003D004480078342802D1204601F0F0FB58
:1030700010BD00002400002070B504460E46154621
:1030800094F86A00202843D106B10DB9012070BD23
:1030900000BF94F86800012801D10220F7E7012061
:1030A00084F8680000BF6665A4F858500020E06608
:1030B000222084F86A001748616E88621648616EA3
:1030C000C8621648616E08630020616E4863236819
:1030D00003F124012B46626D606EFEF7B8FA00BF63
:1030E000002084F8680000BF2068006840F4807009
:1030F000216808602068806840F0010021688860CD
:103100002068806840F04000216888600020BEE7A9
:103110000220BCE7AD3A0008F53A0008573A00082B
:1031200010B5034693F86A00202847D101B10AB9C7
:10313000012010BD00BF93F86800012801D10220D2
:10314000F7E7012083F8680000BF5965A3F858200D
:10315000A3F85A2000BF9868B0F5805F0AD11869BB
:1031600020B940F2FF10A3F85C000EE0FF20A3F8A6
:103170005C000AE0986840B9186918B9FF20A3F804
:103180005C0002E07F20A3F85C0000BF0020D8664E
:10319000222083F86A0000BF002083F8680000BF87
:1031A0001868806840F001001C68A060186800681A
:1031B00040F490701C6820600020BAE70220B8E755
:1031C00010B50446204600F0D1F80121204600F059
:1031D000FBF810BD7047000070B504460E4615465A
:1031E00094F8690020283CD106B10DB9012070BDCA
:1031F00000BF94F86800012801D10220F7E7012000
:1032000084F8680000BFE664A4F85050A4F8525057
:103210000020E066212084F869001348216E88624E
:103220001248216EC8621248216E08630020216E88
:103230004863236803F128022B46E16C206EFEF7F9
:1032400006FA40202168086200BF002084F8680068
:1032500000BF2068806840F08000216888600020FE
:10326000C5E70220C3E70000033B00083B3B000822
:10327000573A000810B5034693F86900202824D176
:1032800001B10AB9012010BD00BF93F86800012800
:1032900001D10220F7E7012083F8680000BF43F85E
:1032A0004C1F9A80DA8000201862212058774C3B0E
:1032B00000BF002083F8680000BF1868006840F075
:1032C00080001C6820600020DDE70220DBE710B5ED
:1032D0000446204600F0FBFA0021204600F074F876
:1032E00010BD704700BFFEE701200D490978122983
:1032F00006D10C490968096E0968496801B10020C6
:1033000007490978232905D106490968B1F85210FF
:1033100001B1002002490978342900D100BF70476B
:10332000240000201800002000BFFEE770470000C6
:1033300002480068C0F30220704700000CED00E076
:1033400010B5002807DA0A07140E054A00F00F032B
:103350001B1FD45403E00A07130E024A135410BD76
:1033600018ED00E000E400E07047000010B50446EE
:103370000F4800680078532818D100200D490870C4
:103380000D48007830B901200B4908700B48FFF751
:103390007BFB03E0C8210A4801F056F94FF40050C6
:1033A0000849086040114FF09041886110BD00004D
:1033B000000000201000002011000020B4000020B8
:1033C0004C0100201808004870B504460D460C4812
:1033D0000078122805D101220A4801682046FFF72B
:1033E0004BFE07480078232803D00548007834288E
:1033F00005D10122034801682046FFF791FE70BD08
:10340000240000201C000020704710B5FEF7EEFAE3
:1034100010BD00002DE9F04790B004460D4625B1DF
:103420000920069001200C9003E001200690002066
:103430000C904FF480300790002008900A900220F2
:103440000D90C1030E9100BF4FF47A7044432C4895
:10345000B4FBF0F6B01E86040F9606A8FEF78AFDB0
:1034600008B100BFFEE70F2001900220029000206B
:1034700003904FF4806004900020059002210F9883
:1034800001EB9047089800F101091E480068B0FB65
:10349000F9F078431B4908604FF0000808460068BF
:1034A0001949884200D213E016480068164988423C
:1034B00007D3144800684900884202D84FF0010839
:1034C00006E0104800681149884201D94FF002080F
:1034D000414601A8FEF782FBFEF7D4FC4FF47A7157
:1034E000B0FBF1FA5046FFF75BFA0420FFF744FA0D
:1034F00000221146501EFEF71EFB10B0BDE8F087FB
:1035000000127A001400002000366E01006CDC020C
:103510001948006840F470001749086017480068AF
:1035200040F0010015490860084640681449084009
:103530001249486008460068124908400F4908606F
:103540000846006820F4802008600846406820F49F
:10355000FE0048600846C06A20F00F00C8620846B6
:10356000006B094908400549086300208860C803CA
:10357000014980390860704788ED00E00010024082
:103580000CC07FF8FFFFF6FECCFC00FF10B5024830
:10359000FFF727FB10BD0000B400002008B55A4A11
:1035A000016891420DD100BF5849896941F4006119
:1035B000564A91611146896901F40061009100BF8A
:1035C000A1E00168B1F1804F0DD100BF4F49C96939
:1035D00041F001014D4AD1611146C96901F0010173
:1035E000009100BF8FE04A4A016891420DD100BFAF
:1035F0004649C96941F00201444AD1611146C9698D
:1036000001F00201009100BF7DE0424A0168914251
:103610000DD100BF3D49C96941F004013B4AD16168
:103620001146C96901F00401009100BF6BE03A4AFC
:10363000016891420DD100BF3449C96941F01001C0
:10364000324AD1611146C96901F01001009100BFF1
:1036500059E0324A016891420DD100BF2B49C96936
:1036600041F02001294AD1611146C96901F02001C8
:10367000009100BF47E02A4A016891420DD100BF86
:103680002249896941F40051204A916111468969B2
:1036900001F40051009100BF35E0224A01689142D7
:1036A0000DD100BF1949896941F48031174A9161F0
:1036B0001146896901F48031009100BF23E01A4A64
:1036C000016891420DD100BF1049896941F4003170
:1036D0000E4A91611146896901F40031009100BFE1
:1036E00011E0124A016891420DD100BF0749896972
:1036F00041F48021054A91611146896901F48021D4
:10370000009100BF00BF08BD002C01400010024026
:103710000004004000080040001000400014004079
:103720000034014000400140004401400048014095
:1037300010B500220268264B98420BD0B0F1804FA2
:1037400008D0244B984205D0234B984202D0234BFB
:10375000984203D122F070024B681A431C4B9842E6
:1037600014D0B0F1804F11D01A4B98420ED01A4BA2
:1037700098420BD0194B984208D0194B984205D06B
:10378000184B984202D0184B984203D122F4407251
:10379000CB681A4322F080034C6943EA04020260BA
:1037A0008B68C3620B688362094B98420BD00B4B4A
:1037B000984208D00A4B984205D00A4B984202D052
:1037C000094B984201D10B6903630123436110BD8A
:1037D000002C01400004004000080040003401407B
:1037E00000400140004401400048014030B50C4613
:1037F0000021816821F47F4142EA032525432943C2
:10380000816030BD0A460021816821F0700142F0DC
:10381000070319438160704730B50B4614460021F9
:103820000022026A056A25F001050562816921F01E
:10383000F00141EA041122F00A021A438161026296
:1038400030BD30B50B46144600210022056A25F034
:10385000100505628169026A21F4704141EA043170
:1038600022F0A00242EA03128161026230BD2DE91A
:10387000F04188B004460D4616461F46DDF83880F4
:103880002560C4F80480E7600021A16021616161C6
:10389000A1612046FFF7D8F84FF48050049004A9A6
:1038A0002046FFF701F920200190002002900390AC
:1038B00001A92046FFF792F8002211463046FEF794
:1038C0003AF93046FEF72AF908B0BDE8F08100BFAA
:1038D000704790F8241001F0010139B1016849687E
:1038E00021F40031826A11430268516090F824107B
:1038F00001F00201022907D10168496821F48031F1
:10390000C26A11430268516090F8241001F004016A
:10391000042907D10168496821F48021026B114311
:103920000268516090F8241001F00801082907D1BD
:103930000168496821F40041426B114302685160FB
:1039400090F8241001F01001102907D1016889684E
:1039500021F48051826B11430268916090F8241029
:1039600001F02001202907D10168896821F4005164
:10397000C26B11430268916090F8241001F040017D
:10398000402913D10168496821F48011026C114368
:1039900002685160016CB1F5801F07D10168496868
:1039A00021F4C001426C11430268516090F8241068
:1039B00001F08001802907D10168496821F40021C4
:1039C000826C114302685160704738B50446002587
:1039D0000020E066FEF704F805462068006800F065
:1039E000080008280CD16FF07E402B4600224FF4CF
:1039F00000110090204600F010FB08B1032038BDF4
:103A00002068006800F0040004280CD16FF07E40AC
:103A10002B4600224FF480010090204600F0FDFA72
:103A200008B10320EBE7202084F8690084F86A00DD
:103A300000BF002084F8680000BF00BFDFE770B55A
:103A400005466C6A0020A4F85A00A4F852002046EB
:103A5000FFF7D8F970BD70B505466C6A94F8690037
:103A600021280BD12068806800F08000802805D1D3
:103A70000020A4F85200204600F086F894F86A006E
:103A800022280BD12068806800F04000402805D132
:103A90000020A4F85A00204600F056F8E06E40F0EE
:103AA0001000E0662046FFF7ADF970BD70B5054621
:103AB0006C6A2868006800F02000B8B90020A4F8FB
:103AC0005A002068006820F480702168086020682F
:103AD000806820F00100216888602068806820F0FC
:103AE000400021688860202084F86A002046FFF7A3
:103AF00067FB70BD70B50446656A2846FFF76AFB30
:103B000070BD70B505466C6A2868006800F020003A
:103B100078B90020A4F852002068806820F0800066
:103B2000216888602068006840F0400021680860D3
:103B300002E02046FFF7CBFB70BD70B50446656A16
:103B40002846FFF7CEFB70BD0168096821F490712B
:103B5000026811600168896821F0010102689160C2
:103B6000202180F86A10704710B50446206800686C
:103B700020F0400021680860202084F86900204679
:103B8000FFF7A5FB002010BD0168096821F0C00106
:103B900002681160202180F8691070472DE9F04714
:103BA00004460D4616461F46DDF820804FF00009FA
:103BB0001C4880F800801C4804601C482060676036
:103BC0000021A160E1602161A1610C2161610020FF
:103BD00060622046FFF7F2F808B14FF001090121B9
:103BE0000846FCF7EDFA306001210846FCF7E8FAD8
:103BF00028600F49306808600E49286808600C4842
:103C00000068606508460068E0642046FFF7C2F976
:103C100008B14FF0010901212046FFF7D5FB4846C6
:103C2000BDE8F08724000020180000200038014083
:103C30001C000020200000202DE9F0410446B4F8CB
:103C40005C7094F86A00222833D12068858CA068C3
:103C5000B0F5805F09D1206938B9666D05EA0700C3
:103C60003080606D801C606505E0F8B22840626DB0
:103C7000511C61651070B4F85A00401E80B2A4F85F
:103C80005A00A0B92068006820F49070216808608C
:103C90002068806820F0010021688860202084F876
:103CA0006A002046FFF78CFA0020BDE8F081002072
:103CB000FBE72068806940F00800216888610220E5
:103CC000F3E700002DE9F047044600251026002701
:103CD000A846A9462169A068084361690843E169CB
:103CE00040EA01052068006849F20C6188432843D6
:103CF000216808602068406820F44050E16808436B
:103D000021684860216AA06940EA0105206880684E
:103D100020F4306028432168886000BF9C492068F7
:103D2000884216D19B48006B00F0030030B1012897
:103D300008D0022808D0032808D101E0012607E0B6
:103D4000022605E0042603E0082601E0102600BF55
:103D500078E091492068884219D18E48006B00F4C0
:103D6000403048B1B0F5803F0AD0B0F5003F09D0EF
:103D7000B0F5403F08D101E0002607E0022605E04B
:103D8000042603E0082601E0102600BF5AE083491C
:103D90002068884219D17F48006B00F4402048B168
:103DA000B0F5802F0AD0B0F5002F09D0B0F5402F24
:103DB00008D101E0002607E0022605E0042603E022
:103DC000082601E0102600BF3CE0754920688842C3
:103DD00019D17048006B00F4401048B1B0F5801F55
:103DE0000AD0B0F5001F09D0B0F5401F08D101E09E
:103DF000002607E0022605E0042603E0082601E08D
:103E0000102600BF1EE067492068884219D161482A
:103E1000006B00F4400048B1B0F5800F0AD0B0F557
:103E2000000F09D0B0F5400F08D101E0002607E0EF
:103E3000022605E0042603E0082601E0102600BF64
:103E400000E0102600BFE069B0F5004F52D1042E0B
:103E50002BD005DC4EB1012E12D0022E3BD11AE040
:103E6000082E2DD0102E36D136E0FEF711F8400086
:103E7000616800EB5100B0FBF1F01FFA80F82EE012
:103E8000FEF71CF84000616800EB5100B0FBF1F058
:103E90001FFA80F823E04449606801EB5000616834
:103EA000B0FBF1F01FFA80F819E0FEF71DF84000B2
:103EB000616800EB5100B0FBF1F01FFA80F80EE0F2
:103EC0004FF48031606801EB50006168B0FBF1F0A5
:103ED0001FFA80F803E000BF4FF0010900BF00BFE8
:103EE0004FF6F07008EA0007C8F342000743206865
:103EF000C7604AE0042E2CD005DC4EB1012E12D052
:103F0000022E3DD11AE0082E2ED0102E38D138E0E6
:103F1000FDF7BEFF616800EB5100B0FBF1F080B22D
:103F20002168C86030E0FDF7C9FF616800EB51000F
:103F3000B0FBF1F080B22168C86025E01B496068E1
:103F400001EB50006168B0FBF1F080B22168C860FD
:103F50001AE0FDF7C9FF616800EB5100B0FBF1F01A
:103F600080B22168C8600FE04FF40041606801EB47
:103F700050006168B0FBF1F080B22168C86003E0D6
:103F800000BF4FF0010900BF00BF4846BDE8F08701
:103F9000003801400010024000440040004800404A
:103FA000004C0040005000400024F40000127A0051
:103FB000014691F8690021282DD1B1F8520068B965
:103FC0000868006820F080000B68186008680068C6
:103FD00040F040000B681860002070478868B0F51A
:103FE000805F0BD1086948B9CA6C1088C0F308001B
:103FF0000B681885C86C801CC86405E0CB6C581C25
:10400000C86418780B681885B1F85200401EA1F8F2
:1040100052000020E1E70220DFE72DE9F0410446ED
:104020000D4617469846069E21E0701CF8B12EB149
:10403000FDF7D6FCA0EB0800B04218D92068006854
:1040400020F4D070216808602068806820F00100AA
:1040500021688860202084F8690084F86A0000BF25
:10406000002084F8680000BF0320BDE8F0812068CC
:10407000C0692840A84201D1012000E00020B842D8
:10408000D3D00020F1E7000010B502480068FEF729
:10409000BBFE10BD1800002000BFFEE70FB4084BA8
:1040A00010B504A902AA039800F01CF8044602A95E
:1040B000002000F0B8F9204610BC5DF814FB0000A9
:1040C0002744000802E008C8121F08C1002AFAD1DC
:1040D00070477047002001E001C1121F002AFBD188
:1040E000704700002DE9FF4F8BB08846054600263B
:1040F00006E025280BD0DDE90D1290476D1C761CDB
:1041000028780028F5D10FB03046BDE8F08F0024A4
:10411000A146A2460122AE4900E0044315F8013F42
:10412000203B02FA03F00842F7D128782A2810D061
:104130006FF02F022878A0F13001092915D809EB7A
:10414000890102EB410144F0020400EB01096D1CFE
:10415000F0E758F8041B5FEA010903D544F4005462
:10416000C9F1000944F002046D1C28782E2817D1EB
:1041700015F8010F44F004042A280ED06FF02F0226
:104180002878A0F1300109290AD80AEB8A0102EB4C
:10419000410100EB010A6D1CF2E758F804AB6D1CFD
:1041A00028786C280FD006DC4C2817D068280DD052
:1041B0006A2814D104E0742810D07A280FD10DE0B9
:1041C00044F400140AE044F4801401E044F4401480
:1041D0006978814202D104F580146D1C6D1C287829
:1041E000692865D006DC00288DD0632827D0642894
:1041F00006D15DE06E2808D073282AD0752877D0C4
:10420000DDE90D129047761CE0E0C4F3025002286D
:1042100009D003280DD0D8F8001004280DD00E6066
:1042200008F10408D2E0D8F80010F217C1E90062E2
:10423000F6E7D8F800100E80F2E70E70F0E718F8F5
:10424000041B8DF8001000208DF80100EB460120C2
:1042500003E058F804BB4FF0FF3061074FF0000750
:1042600001D40AE07F1C57450DDA8742FADB1BF8C0
:1042700007100029F6D106E07F1C8742FCDB1BF803
:1042800007100029F8D1DDE90D23A9EB07008146CD
:10429000214600F0B1F83044C61904E0DDE90D1202
:1042A0001BF8010B90477F1EF8D22146484688E054
:1042B00058F8040BC4F302514FF00A0B032900D144
:1042C00000B2042900D140B2002802DA40422D2178
:1042D00002E0210505D52B218DF82410012104E0F1
:1042E00006E0E10710D02021F6E708AF089113E0BF
:1042F00058F8040BC4F302514FF00A0B032900D104
:1043000080B2042900D1C0B20021EEE75946FBF784
:1043100065FF303107F8011D0028F7D1ADEB07002C
:1043200000F1200B600702D524F4803401E04FF047
:10433000010ADA4502DDAAEB0B0000E0002082460C
:1043400000EB0B0108980144A9EB01000A90E0037F
:1043500006D4DDE90D2321460A9800F04DF8064405
:104360004FF0000908E009A911F80900DDE90D1274
:10437000904709F10109761C08998945F3DBE003B0
:104380000CD5DDE90D2321460A9800F035F80644E6
:1043900004E0DDE90D1230209047761CBAF10001EF
:1043A000AAF1010AF5DC05E0DDE90D1217F8010BB1
:1043B0009047761CBBF10001ABF1010BF4DC0A98CD
:1043C0002146DDE90D2300F005F806446D1C97E653
:1043D000092801002DE9F041044600251E46174634
:1043E000880404D405E039462020B0476D1C641EC3
:1043F000F9D52846BDE8F0812DE9F04104460025B5
:104400001E469046C80301D5302700E020278804C7
:1044100004D505E041463846B0476D1C641EF9D509
:104420002846BDE8F0810A68531C0B601070704785
:1044300008B5FDF7E7FA002145F6C050FEF7EAFFA0
:104440000023012208214FF09040FCF701F90023DE
:10445000012251034448FCF7FBF808204FF090413B
:1044600088610023012241014FF09040FCF7F0F8F1
:1044700040F2E73017232C223C4900903C48FFF7DC
:10448000F6F94FF4E070072300223A4900903A48C9
:10449000FBF7CCFE34204FF4E133384A3849009022
:1044A0003848FFF77BFB5DE037480078002859D09B
:1044B000002035490870354908603549088015E005
:1044C0002C49334B1B8831F8132032492F4B1B6882
:1044D000C81831A1FFF7E2FD2C49096808442B49AF
:1044E00008602B480088401C29490880284800881B
:1044F000C828E5DB2548008882B22649214800F01B
:10450000BFF800BFFEF7F0FE0028FBD000201F49D7
:104510000860C8211748FCF788F821490880084638
:10452000008840F21451884208DA1D4802881DA113
:104530001848FFF7B3FD1549086007E018480288DE
:104540001FA11448FFF7AAFD104908600F48008812
:1045500082B210490B4800F093F800BFFEF7C4FE8A
:104560000028FBD0A0E7000000080048003401400C
:10457000B400002090010020F40000200000002082
:10458000040000204400002010000020080000204B
:104590000E0000202003002025640D0A000000000A
:1045A0000C000020424154544552592049532046A2
:1045B00041494C4544203D2025640D0A000000007F
:1045C0004241545445525920495320504153534578
:1045D00044203D2025640D0A00000000F0B50B309A
:1045E000154D20F007010024144A0FE003688B42A8
:1045F0000BD38B4205D95E1A43184768C3E900679D
:1046000000E04368136002C004E0021D1068002847
:10461000ECD12046002802D1286808B10020F0BD66
:10462000064A07481060074A121A22F00702C0E93A
:10463000002401202860D7E7400000203C00002033
:104640007C0B0020784B00200268126822F00102E7
:1046500003681A60026851600268126842F004023E
:1046600003681A600268126842F0020203681A6066
:104670000268126842F0010203681A607047000085
:1046800070B504460E4615461E480078122804D11F
:104690002A4631462046FEF79FFD1A480078232817
:1046A00004D12A4631462046FEF7E4FD154800783D
:1046B000342826D1A4F85050A4F8525000201249B2
:1046C00008601AE0B4F85200401EA4F852002068B6
:1046D000C06900F0800018B116F8010B2168088548
:1046E00000E000BF2068C06900F080000028F8D01A
:1046F00005480068401C0449086003480068A84257
:10470000E0D370BD240000202C00002010B586B03E
:10471000044600BF4A48406940F4003048494861B7
:104720000846406900F40030009000BF00BF00BFA1
:104730000846406940F4003048610846406900F48A
:104740000030009000BF00BF00BF0846806940F401
:10475000804088610846806900F48040009000BF76
:1047600000BF00BF0846406940F0010048610846AC
:10477000406900F00100009000BF00BF48150190A3
:10478000022002900120039003200490072005904E
:1047900001A94FF09040FDF737F84FF48060019089
:1047A0000720059001A94FF09040FDF72DF825480E
:1047B000254908601020486000212348816080213D
:1047C000C1600021016141618161C161FCF714FF99
:1047D00000BF1D482066446200BF1A4814301B49C0
:1047E0000860002048600021184881608021C16075
:1047F00000210161416181614FF40051C161FCF709
:10480000FBFE00BF11486066446200BF01221146F2
:104810000E20FDF790F90E20FDF780F9002201210E
:104820000F20FDF788F90F20FDF778F9022201210A
:104830002520FDF780F92520FDF770F906B010BDA1
:104840000010024044000240F00A0020340B002017
:1048500010B586B0044600BF2448406940F40030DB
:10486000224948610846406900F40030009000BFCA
:1048700000BF00BF0846406940F400304861084668
:10488000406900F40030009000BF00BF00BF084640
:10489000806940F4804088610846806900F4804067
:1048A000009000BF00BF4815019002200290012037
:1048B0000390032004900720059001A94FF0904039
:1048C000FCF7A2FF4FF4806001900720059001A93A
:1048D0004FF09040FCF798FF012200212520FDF7C2
:1048E0002AF92520FDF71AF906B010BD0010024084
:1048F0000000000000000000010203040607080990
:104900000000000001020304020304050607080971
:104910000A0B0C0D0E0F1010010203040506070808
:10492000090A0B0C0D0E0F1048490008000000206A
:1049300044000000C44000088C49000844000020E6
:1049400034500000D44000080000000000000000C7
:1049500000000000000000000000000000127A00CB
:10496000000000000000000000000000FF00000048
:104970000000000000000000000000001000000027
:0C4980000100000000000000000000002A
:040000050800018965
:00000001FF
